:100000000C942A000C9447000C9447000C94470071
:100010000C9447000C9447000C9447000C94470044
:100020000C9447000C9447000C9447000C94470034
:100030000C9447000C9447000C9447000C94470024
:100040000C9447000C9447000C9447000C94470014
:100050000C94470011241FBECFE5D8E0DEBFCDBF12
:1000600010E0A0E6B0E0E8E1F2E002C005900D92F9
:10007000AC36B107D9F711E0ACE6B0E001C01D9293
:10008000A930B107E1F70E9449000C940A010C94D1
:10009000000080E090E0089588BB80E28BBB89EF90
:1000A00090E00197F1F700C000001BBA83ED90E3E8
:1000B0000197F1F700C00000089588BB80EA8BBB70
:1000C00089EF90E00197F1F700C0000080E88BBB5A
:1000D00083ED90E30197F1F700C000000895CF93FE
:1000E000DF93EC018881882331F021960E945D0026
:1000F00089918823D9F7DF91CF91089510BC8DE4C1
:1001000089B9549A80B5866880BD089585B38F708B
:1001100085BB83B38F70809371008F30B9F787E808
:1001200093E10197F1F700C0000083B38F708093D3
:1001300071008F30A1F387E893E10197F1F700C0D8
:10014000000083B38F70809371008F3041F39FEE76
:100150002FED3FEB4FE795BB83B38F70809371001A
:100160008F3019F01092080120C025BB83B38F7027
:10017000809371008F3021F081E08093080115C0D9
:1001800035BB83B38F70809371008F3021F082E094
:10019000809308010AC045BB83B38F7080937100C0
:1001A0008F30C9F283E080930801809171008E3016
:1001B00079F48091080190E0FC01EE0FFF1F8E0F93
:1001C0009F1FFC01E05AFF4F828180936C000895CD
:1001D0008D3079F48091080190E0FC01EE0FFF1F53
:1001E0008E0F9F1FFC01E05AFF4F818180936C00AE
:1001F00008958B3071F48091080190E0FC01EE0FBE
:10020000FF1F8E0F9F1FFC01E05AFF4F80818093DC
:080210006C000895F894FFCF83
:0C0218003332313635343938372A302380
:00000001FF
